{
  "_format": "hh-sol-artifact-1",
  "contractName": "MyVulnerableContract",
  "sourceName": "contracts/MyVulnerableContract.sol",
  "abi": [
    {
      "inputs": [
        {
          "internalType": "address",
          "name": "target",
          "type": "address"
        }
      ],
      "name": "AddressEmptyCode",
      "type": "error"
    },
    {
      "inputs": [
        {
          "internalType": "address",
          "name": "implementation",
          "type": "address"
        }
      ],
      "name": "ERC1967InvalidImplementation",
      "type": "error"
    },
    {
      "inputs": [],
      "name": "ERC1967NonPayable",
      "type": "error"
    },
    {
      "inputs": [],
      "name": "EnforcedPause",
      "type": "error"
    },
    {
      "inputs": [],
      "name": "ExpectedPause",
      "type": "error"
    },
    {
      "inputs": [],
      "name": "FailedInnerCall",
      "type": "error"
    },
    {
      "inputs": [],
      "name": "InvalidInitialization",
      "type": "error"
    },
    {
      "inputs": [],
      "name": "NotInitializing",
      "type": "error"
    },
    {
      "inputs": [
        {
          "internalType": "address",
          "name": "owner",
          "type": "address"
        }
      ],
      "name": "OwnableInvalidOwner",
      "type": "error"
    },
    {
      "inputs": [
        {
          "internalType": "address",
          "name": "account",
          "type": "address"
        }
      ],
      "name": "OwnableUnauthorizedAccount",
      "type": "error"
    },
    {
      "inputs": [],
      "name": "UUPSUnauthorizedCallContext",
      "type": "error"
    },
    {
      "inputs": [
        {
          "internalType": "bytes32",
          "name": "slot",
          "type": "bytes32"
        }
      ],
      "name": "UUPSUnsupportedProxiableUUID",
      "type": "error"
    },
    {
      "anonymous": false,
      "inputs": [
        {
          "indexed": false,
          "internalType": "uint64",
          "name": "version",
          "type": "uint64"
        }
      ],
      "name": "Initialized",
      "type": "event"
    },
    {
      "anonymous": false,
      "inputs": [
        {
          "indexed": true,
          "internalType": "address",
          "name": "previousOwner",
          "type": "address"
        },
        {
          "indexed": true,
          "internalType": "address",
          "name": "newOwner",
          "type": "address"
        }
      ],
      "name": "OwnershipTransferred",
      "type": "event"
    },
    {
      "anonymous": false,
      "inputs": [
        {
          "indexed": false,
          "internalType": "address",
          "name": "account",
          "type": "address"
        }
      ],
      "name": "Paused",
      "type": "event"
    },
    {
      "anonymous": false,
      "inputs": [
        {
          "indexed": false,
          "internalType": "address",
          "name": "account",
          "type": "address"
        }
      ],
      "name": "Unpaused",
      "type": "event"
    },
    {
      "anonymous": false,
      "inputs": [
        {
          "indexed": true,
          "internalType": "address",
          "name": "implementation",
          "type": "address"
        }
      ],
      "name": "Upgraded",
      "type": "event"
    },
    {
      "inputs": [],
      "name": "UPGRADE_INTERFACE_VERSION",
      "outputs": [
        {
          "internalType": "string",
          "name": "",
          "type": "string"
        }
      ],
      "stateMutability": "view",
      "type": "function"
    },
    {
      "inputs": [
        {
          "internalType": "address",
          "name": "",
          "type": "address"
        }
      ],
      "name": "balances",
      "outputs": [
        {
          "internalType": "uint256",
          "name": "",
          "type": "uint256"
        }
      ],
      "stateMutability": "view",
      "type": "function"
    },
    {
      "inputs": [],
      "name": "deposit",
      "outputs": [],
      "stateMutability": "payable",
      "type": "function"
    },
    {
      "inputs": [
        {
          "internalType": "address",
          "name": "owner",
          "type": "address"
        }
      ],
      "name": "initialize",
      "outputs": [],
      "stateMutability": "nonpayable",
      "type": "function"
    },
    {
      "inputs": [],
      "name": "owner",
      "outputs": [
        {
          "internalType": "address",
          "name": "",
          "type": "address"
        }
      ],
      "stateMutability": "view",
      "type": "function"
    },
    {
      "inputs": [],
      "name": "paused",
      "outputs": [
        {
          "internalType": "bool",
          "name": "",
          "type": "bool"
        }
      ],
      "stateMutability": "view",
      "type": "function"
    },
    {
      "inputs": [],
      "name": "proxiableUUID",
      "outputs": [
        {
          "internalType": "bytes32",
          "name": "",
          "type": "bytes32"
        }
      ],
      "stateMutability": "view",
      "type": "function"
    },
    {
      "inputs": [],
      "name": "renounceOwnership",
      "outputs": [],
      "stateMutability": "nonpayable",
      "type": "function"
    },
    {
      "inputs": [
        {
          "internalType": "address",
          "name": "newOwner",
          "type": "address"
        }
      ],
      "name": "transferOwnership",
      "outputs": [],
      "stateMutability": "nonpayable",
      "type": "function"
    },
    {
      "inputs": [
        {
          "internalType": "address",
          "name": "newImplementation",
          "type": "address"
        },
        {
          "internalType": "bytes",
          "name": "data",
          "type": "bytes"
        }
      ],
      "name": "upgradeToAndCall",
      "outputs": [],
      "stateMutability": "payable",
      "type": "function"
    },
    {
      "inputs": [
        {
          "internalType": "uint256",
          "name": "_amount",
          "type": "uint256"
        }
      ],
      "name": "withdraw",
      "outputs": [],
      "stateMutability": "nonpayable",
      "type": "function"
    },
    {
      "stateMutability": "payable",
      "type": "receive"
    }
  ],
  "bytecode": "0x60a06040523073ffffffffffffffffffffffffffffffffffffffff1660809073ffffffffffffffffffffffffffffffffffffffff1681525034801561004357600080fd5b506080516117bf61006d600039600081816107be0152818161081301526109ce01526117bf6000f3fe6080604052600436106100a05760003560e01c8063715018a611610064578063715018a61461018c5780638da5cb5b146101a3578063ad3cb1cc146101ce578063c4d66de8146101f9578063d0e30db014610222578063f2fde38b1461022c576100af565b806327e235e3146100b45780632e1a7d4d146100f15780634f1ef2861461011a57806352d1902d146101365780635c975abb14610161576100af565b366100af576100ad610255565b005b600080fd5b3480156100c057600080fd5b506100db60048036038101906100d69190611123565b6102b4565b6040516100e89190611169565b60405180910390f35b3480156100fd57600080fd5b50610118600480360381019061011391906111b0565b6102cc565b005b610134600480360381019061012f9190611323565b61045a565b005b34801561014257600080fd5b5061014b610479565b6040516101589190611398565b60405180910390f35b34801561016d57600080fd5b506101766104ac565b60405161018391906113ce565b60405180910390f35b34801561019857600080fd5b506101a16104d1565b005b3480156101af57600080fd5b506101b86104e5565b6040516101c591906113f8565b60405180910390f35b3480156101da57600080fd5b506101e361051d565b6040516101f09190611492565b60405180910390f35b34801561020557600080fd5b50610220600480360381019061021b9190611123565b610556565b005b61022a610255565b005b34801561023857600080fd5b50610253600480360381019061024e9190611123565b6106f5565b005b61025d61077b565b346000803373ffffffffffffffffffffffffffffffffffffffff1673ffffffffffffffffffffffffffffffffffffffff16815260200190815260200160002060008282546102ab91906114e3565b92505081905550565b60006020528060005260406000206000915090505481565b6102d461077b565b806000803373ffffffffffffffffffffffffffffffffffffffff1673ffffffffffffffffffffffffffffffffffffffff168152602001908152602001600020541015610355576040517f08c379a000000000000000000000000000000000000000000000000000000000815260040161034c90611563565b60405180910390fd5b60003373ffffffffffffffffffffffffffffffffffffffff168260405161037b906115b4565b60006040518083038185875af1925050503d80600081146103b8576040519150601f19603f3d011682016040523d82523d6000602084013e6103bd565b606091505b5050905080610401576040517f08c379a00000000000000000000000000000000000000000000000000000000081526004016103f890611615565b60405180910390fd5b816000803373ffffffffffffffffffffffffffffffffffffffff1673ffffffffffffffffffffffffffffffffffffffff168152602001908152602001600020600082825461044f9190611635565b925050819055505050565b6104626107bc565b61046b826108a2565b61047582826108ad565b5050565b60006104836109cc565b7f360894a13ba1a3210667c828492db98dca3e2076cc3735a920a3ca505d382bbc60001b905090565b6000806104b7610a53565b90508060000160009054906101000a900460ff1691505090565b6104d9610a7b565b6104e36000610b02565b565b6000806104f0610bd9565b90508060000160009054906101000a900473ffffffffffffffffffffffffffffffffffffffff1691505090565b6040518060400160405280600581526020017f352e302e3000000000000000000000000000000000000000000000000000000081525081565b6000610560610c01565b905060008160000160089054906101000a900460ff1615905060008260000160009054906101000a900467ffffffffffffffff1690506000808267ffffffffffffffff161480156105ae5750825b9050600060018367ffffffffffffffff161480156105e3575060003073ffffffffffffffffffffffffffffffffffffffff163b145b9050811580156105f1575080155b15610628576040517ff92ee8a900000000000000000000000000000000000000000000000000000000815260040160405180910390fd5b60018560000160006101000a81548167ffffffffffffffff021916908367ffffffffffffffff16021790555083156106785760018560000160086101000a81548160ff0219169083151502179055505b61068186610c29565b610689610c3d565b610691610c4f565b83156106ed5760008560000160086101000a81548160ff0219169083151502179055507fc7f505b2f371ae2175ee4913f4499e1f2633a7b5936321eed1cdaeb6115181d260016040516106e491906116c2565b60405180910390a15b505050505050565b6106fd610a7b565b600073ffffffffffffffffffffffffffffffffffffffff168173ffffffffffffffffffffffffffffffffffffffff160361076f5760006040517f1e4fbdf700000000000000000000000000000000000000000000000000000000815260040161076691906113f8565b60405180910390fd5b61077881610b02565b50565b6107836104ac565b156107ba576040517fd93c066500000000000000000000000000000000000000000000000000000000815260040160405180910390fd5b565b7f000000000000000000000000000000000000000000000000000000000000000073ffffffffffffffffffffffffffffffffffffffff163073ffffffffffffffffffffffffffffffffffffffff16148061086957507f000000000000000000000000000000000000000000000000000000000000000073ffffffffffffffffffffffffffffffffffffffff16610850610c59565b73ffffffffffffffffffffffffffffffffffffffff1614155b156108a0576040517fe07c8dba00000000000000000000000000000000000000000000000000000000815260040160405180910390fd5b565b6108aa610a7b565b50565b8173ffffffffffffffffffffffffffffffffffffffff166352d1902d6040518163ffffffff1660e01b8152600401602060405180830381865afa92505050801561091557506040513d601f19601f820116820180604052508101906109129190611709565b60015b61095657816040517f4c9c8ce300000000000000000000000000000000000000000000000000000000815260040161094d91906113f8565b60405180910390fd5b7f360894a13ba1a3210667c828492db98dca3e2076cc3735a920a3ca505d382bbc60001b81146109bd57806040517faa1d49a40000000000000000000000000000000000000000000000000000000081526004016109b49190611398565b60405180910390fd5b6109c78383610cb0565b505050565b7f000000000000000000000000000000000000000000000000000000000000000073ffffffffffffffffffffffffffffffffffffffff163073ffffffffffffffffffffffffffffffffffffffff1614610a51576040517fe07c8dba00000000000000000000000000000000000000000000000000000000815260040160405180910390fd5b565b60007fcd5ed15c6e187e77e9aee88184c21f4f2182ab5827cb3b7e07fbedcd63f03300905090565b610a83610d23565b73ffffffffffffffffffffffffffffffffffffffff16610aa16104e5565b73ffffffffffffffffffffffffffffffffffffffff1614610b0057610ac4610d23565b6040517f118cdaa7000000000000000000000000000000000000000000000000000000008152600401610af791906113f8565b60405180910390fd5b565b6000610b0c610bd9565b905060008160000160009054906101000a900473ffffffffffffffffffffffffffffffffffffffff169050828260000160006101000a81548173ffffffffffffffffffffffffffffffffffffffff021916908373ffffffffffffffffffffffffffffffffffffffff1602179055508273ffffffffffffffffffffffffffffffffffffffff168173ffffffffffffffffffffffffffffffffffffffff167f8be0079c531659141344cd1fd0a4f28419497f9722a3daafe3b4186f6b6457e060405160405180910390a3505050565b60007f9016d09d72d40fdae2fd8ceac6b6234c7706214fd39c1cd1e609a0528c199300905090565b60007ff0c57e16840df040f15088dc2f81fe391c3923bec73e23a9662efc9c229c6a00905090565b610c31610d2b565b610c3a81610d6b565b50565b610c45610d2b565b610c4d610df1565b565b610c57610d2b565b565b6000610c877f360894a13ba1a3210667c828492db98dca3e2076cc3735a920a3ca505d382bbc60001b610e25565b60000160009054906101000a900473ffffffffffffffffffffffffffffffffffffffff16905090565b610cb982610e2f565b8173ffffffffffffffffffffffffffffffffffffffff167fbc7cd75a20ee27fd9adebab32041f755214dbc6bffa90cc0225b39da2e5c2d3b60405160405180910390a2600081511115610d1657610d108282610efc565b50610d1f565b610d1e610f80565b5b5050565b600033905090565b610d33610fbd565b610d69576040517fd7e6bcf800000000000000000000000000000000000000000000000000000000815260040160405180910390fd5b565b610d73610d2b565b600073ffffffffffffffffffffffffffffffffffffffff168173ffffffffffffffffffffffffffffffffffffffff1603610de55760006040517f1e4fbdf7000000000000000000000000000000000000000000000000000000008152600401610ddc91906113f8565b60405180910390fd5b610dee81610b02565b50565b610df9610d2b565b6000610e03610a53565b905060008160000160006101000a81548160ff02191690831515021790555050565b6000819050919050565b60008173ffffffffffffffffffffffffffffffffffffffff163b03610e8b57806040517f4c9c8ce3000000000000000000000000000000000000000000000000000000008152600401610e8291906113f8565b60405180910390fd5b80610eb87f360894a13ba1a3210667c828492db98dca3e2076cc3735a920a3ca505d382bbc60001b610e25565b60000160006101000a81548173ffffffffffffffffffffffffffffffffffffffff021916908373ffffffffffffffffffffffffffffffffffffffff16021790555050565b60606000808473ffffffffffffffffffffffffffffffffffffffff1684604051610f269190611772565b600060405180830381855af49150503d8060008114610f61576040519150601f19603f3d011682016040523d82523d6000602084013e610f66565b606091505b5091509150610f76858383610fdd565b9250505092915050565b6000341115610fbb576040517fb398979f00000000000000000000000000000000000000000000000000000000815260040160405180910390fd5b565b6000610fc7610c01565b60000160089054906101000a900460ff16905090565b606082610ff257610fed8261106c565b611064565b6000825114801561101a575060008473ffffffffffffffffffffffffffffffffffffffff163b145b1561105c57836040517f9996b31500000000000000000000000000000000000000000000000000000000815260040161105391906113f8565b60405180910390fd5b819050611065565b5b9392505050565b60008151111561107f5780518082602001fd5b6040517f1425ea4200000000000000000000000000000000000000000000000000000000815260040160405180910390fd5b6000604051905090565b600080fd5b600080fd5b600073ffffffffffffffffffffffffffffffffffffffff82169050919050565b60006110f0826110c5565b9050919050565b611100816110e5565b811461110b57600080fd5b50565b60008135905061111d816110f7565b92915050565b600060208284031215611139576111386110bb565b5b60006111478482850161110e565b91505092915050565b6000819050919050565b61116381611150565b82525050565b600060208201905061117e600083018461115a565b92915050565b61118d81611150565b811461119857600080fd5b50565b6000813590506111aa81611184565b92915050565b6000602082840312156111c6576111c56110bb565b5b60006111d48482850161119b565b91505092915050565b600080fd5b600080fd5b6000601f19601f8301169050919050565b7f4e487b7100000000000000000000000000000000000000000000000000000000600052604160045260246000fd5b611230826111e7565b810181811067ffffffffffffffff8211171561124f5761124e6111f8565b5b80604052505050565b60006112626110b1565b905061126e8282611227565b919050565b600067ffffffffffffffff82111561128e5761128d6111f8565b5b611297826111e7565b9050602081019050919050565b82818337600083830152505050565b60006112c66112c184611273565b611258565b9050828152602081018484840111156112e2576112e16111e2565b5b6112ed8482856112a4565b509392505050565b600082601f83011261130a576113096111dd565b5b813561131a8482602086016112b3565b91505092915050565b6000806040838503121561133a576113396110bb565b5b60006113488582860161110e565b925050602083013567ffffffffffffffff811115611369576113686110c0565b5b611375858286016112f5565b9150509250929050565b6000819050919050565b6113928161137f565b82525050565b60006020820190506113ad6000830184611389565b92915050565b60008115159050919050565b6113c8816113b3565b82525050565b60006020820190506113e360008301846113bf565b92915050565b6113f2816110e5565b82525050565b600060208201905061140d60008301846113e9565b92915050565b600081519050919050565b600082825260208201905092915050565b60005b8381101561144d578082015181840152602081019050611432565b60008484015250505050565b600061146482611413565b61146e818561141e565b935061147e81856020860161142f565b611487816111e7565b840191505092915050565b600060208201905081810360008301526114ac8184611459565b905092915050565b7f4e487b7100000000000000000000000000000000000000000000000000000000600052601160045260246000fd5b60006114ee82611150565b91506114f983611150565b9250828201905080821115611511576115106114b4565b5b92915050565b7f496e73756666696369656e742062616c616e6365000000000000000000000000600082015250565b600061154d60148361141e565b915061155882611517565b602082019050919050565b6000602082019050818103600083015261157c81611540565b9050919050565b600081905092915050565b50565b600061159e600083611583565b91506115a98261158e565b600082019050919050565b60006115bf82611591565b9150819050919050565b7f5472616e73666572206661696c65640000000000000000000000000000000000600082015250565b60006115ff600f8361141e565b915061160a826115c9565b602082019050919050565b6000602082019050818103600083015261162e816115f2565b9050919050565b600061164082611150565b915061164b83611150565b9250828203905081811115611663576116626114b4565b5b92915050565b6000819050919050565b600067ffffffffffffffff82169050919050565b6000819050919050565b60006116ac6116a76116a284611669565b611687565b611673565b9050919050565b6116bc81611691565b82525050565b60006020820190506116d760008301846116b3565b92915050565b6116e68161137f565b81146116f157600080fd5b50565b600081519050611703816116dd565b92915050565b60006020828403121561171f5761171e6110bb565b5b600061172d848285016116f4565b91505092915050565b600081519050919050565b600061174c82611736565b6117568185611583565b935061176681856020860161142f565b80840191505092915050565b600061177e8284611741565b91508190509291505056fea264697066735822122035d577334c66658915c32e2a6e9925ada5bebe053149e93e92b59593d03fbbef64736f6c63430008140033",
  "linkReferences": {},
  "deployedLinkReferences": {}
}